:030000000200A556
:0C00A500787FE4F6D8FD7581120203F4A8
:0203CB00A90780
:1003CD0043BA807BF07AFF8B828A83ECF00BBB0003
:1003DD00010A8B828A83EDF00BBB00010A8B828AA6
:0603ED0083E9F053BA7F22
:0103F30022E7
:02024E008F110E
:1002500043BA80E51175F010A42400FFE5F034FFE7
:10026000AD07FC120330E5F08D828C83F00DBD00EC
:10027000010C1203308D828C83F00DBD00010C90B7
:10028000000212035BE5F08D828C83F00DBD00014E
:100290000C90000212035B8D828C83F00DBD000177
:1002A0000C90000612030325E025E05404FF9000A3
:1002B0000512030354084FFF900008120303FE25A4
:1002C000E054024FFF90000712030354014F8D8248
:1002D0008C83F0AF117401A807088002C333D8FCE7
:1002E000FF42F59000041203035401FEAD11A8056E
:1002F000088002C333D8FCFEEFF455F14EF5F153FC
:02030000BA7FC2
:0103020022D8
:0300B30002000345
:10000300C0E0C0F0C083C082C0D075D000C001C0C2
:0900130002C003C004C005C006D0
:10001C00E5F630E66053F6BFA9BA43BA807D427C60
:10002C00FF75F002E512A424BEF582E5F03400F56C
:10003C0083E493FE740193FBAA068D828C83EAF011
:10004C000DBD00010C8D828C83EBF0240CFBE43A8B
:10005C007CFF7D228D828C83F00DBD00010C8D8286
:10006C008C83EBF089BA0512E512C394C840037572
:05007C00120053BA7FE1
:10008100D006D005D004D003D002D001D0D0D08288
:07009100D083D0F0D0E03273
:0300BB00020098A8
:0D009800C0E0E5F730E00353F7FED0E032A2
:1000BE0004C404E8050C053005540578059B05BFFE
:1000CE0005E206050627064A066B068D06AE06CE27
:1000DE0006EE070D072C074A0768078507A107BD1F
:1000EE0007D707F1080A0823083A08510866087B63
:1000FE00088F08A208B408C508D508E308F108FE61
:10010E00090A0914091E0926092E0939093D094053
:10011E000941094209410940093D09390934092EAD
:10012E000926091E0914090A08FE08F108E308D574
:10013E0008C508B408A2088F087B08660851083A5B
:10014E000823080A07F107D707BD07A10785076827
:10015E00074A072C070D06EE06CE06AE068D066B79
:10016E00064A0627060505E205BF059B05780554D8
:10017E000530050C04E804C404A0047C04580434BF
:10018E00041003ED03C903A603830361033E031D9D
:10019E0002FB02DA029A027B025C023E022002039A
:1001AE0001E701CB01B10197017E0165014E0137D7
:1001BE000122010D00F900E600D400C300B300A532
:1001CE000097008A007E0074006A0062005A005494
:1001DE00004F004B00480047004600470048004BC8
:1001EE00004F0054005A0062006A0074007E008ABC
:1001FE00009700A500B300C300D400E600F9010D7E
:10020E0001220137014E0165017E019701B101CB3B
:10021E0001E702030220023E025C027B029A02BA4E
:10022E0002DA02FB031D033E0361038303A603C927
:10023E0003ED041004340458047C04A000000000F4
:10039300E4F50DF50CF50EF50FF510F508750941AB
:1003A300750A04750BC4FB7A0079087F0412024EA8
:1003B300C2965391BF4392407D607C09E4FF1203D0
:0703C300CB43F58043F54038
:0103CA002210
:0703F400120393D2AF80FE5B
:10030300BB010CE58229F582E5833AF583E02250AF
:1003130006E92582F8E622BBFE06E92582F8E222F9
:0D032300E58229F582E5833AF583E4932213
:10033000BB010A89828A83E0F5F0A3E02250068798
:10034000F009E71922BBFE07E3F5F009E31922895A
:0B035000828A83E493F5F0740193228D
:10035B00BB0110E58229F582E5833AF583E0F5F0E0
:10036B00A3E0225009E92582F886F008E622BBFEBD
:10037B000AE92582F8E2F5F008E222E5832AF58303
:08038B00E993F5F0A3E99322C8
:00000001FF
