:030000000200BC3F
:0C00BC00787FE4F6D8FD75813002010366
:10021E00E4FEEF3392C8C2CBEF25E0FFD2CB0EBE89
:08022E0008F0C2CA0000D2CAA8
:0102360022A5
:0F023700E4F589758CDCF58AD28CD2A9D2AF227E
:1001D0000528E52870020527C39464E527940040AC
:1001E0001AE4F527F528052BE52B7002052A94E87B
:0C01F000E52A94034005E4F52AF52B22D3
:10000E00AE27AF287C007D0A12014874082DF8E651
:10001E00F525AE27AF287C007D0A12014874082F03
:10002E00F8E6F524AE2AAF2B7C007D0A1201488D2E
:10003E0030AE2AAF2B7C007D0A1201487C007D0A6F
:10004E001201488D2FAE2AAF2B7C007D6412014821
:10005E007C007D0A1201488D2EAE2AAF2B7C037DCB
:10006E00E81201487C007D0A1201488D2D7F037431
:10007E002D2FF8E62408F8E6FE74202FF8A6061FAA
:10008E00C3EF6480948050E7E4F52C7418252CF8A7
:10009E00E6F5E87420252CF8E6FF12021EE4FF12A6
:0D00AE00021E052CC3E52C6480948640DE04
:0100BB002222
:03000B000201FCF3
:1001FC00C0E0C0D0C2AF758CDC758A000526E52640
:10020C00C3940540067526001201D0D2AFD0D0D0D1
:02021C00E032CE
:10019D000818FEFDFBF7EFDFBF7F10083F065B4F32
:1001AD00666D7D077F6F777C395E79710620FFFF65
:1001BD00FFFFFFFF01290001260002270000022A90
:0201CD00000030
:0800030012023712000E80FB0F
:1000C800020003E493A3F8E493A34003F68001F24B
:1000D80008DFF48029E493A3F85407240CC8C33339
:1000E800C4540F4420C8834004F456800146F6DF08
:1000F800E4800B010204081020408090019DE47EFA
:10010800019360BCA3FF543F30E509541FFEE493FC
:10011800A360010ECF54C025E060A840B8E493A3C3
:10012800FAE493A3F8E493A3C8C582C8CAC583CAEE
:10013800F0A3C8C582C8CAC583CADFE9DEE780BEA6
:0101CF00002F
:10014800BC000BBE0029EF8DF084FFADF022E4CC9B
:10015800F875F008EF2FFFEE33FEEC33FCEE9DEC64
:10016800984005FCEE9DFE0FD5F0E9E4CEFD22EDAA
:10017800F8F5F0EE8420D21CFEADF075F008EF2FF4
:10018800FFED33FD4007985006D5F0F222C398FDE5
:050198000FD5F0EA2282
:00000001FF
