:03000000020213E6
:0C021300787FE4F6D8FD75812002025AC5
:1004FF007580FFC2B3D2B4D2B57F017E0012048FD4
:08050F00E58020E7FBC2B522E4
:100517008F141204FFC2B3C2B4D2B58514807F0111
:080527007E0012048FC2B52210
:10052F008F131204FFD2B3C2B4D2B58513807F01EB
:08053F007E0012048FC2B522F8
:1004CB00ED70048F138005EF2440F513E513448082
:0B04DB00FF1205177F017E0002048F56
:1003C4008B108A1189121204CBAB10AA11A9121234
:1003D400011C601A0512E5127002051114F91201CC
:0F03E4001CFF12052F7F017E0012048F80DB2289
:10041F007F381205177F057E0012048F7F38120573
:10042F00177F011205177F061205177F057E001231
:07043F00048F7F0C0205177A
:10048F00E4FDFCC3ED9FEC9E5015E4FBFA0BBB00A3
:0F049F00010AEB64784A70F50DBD00010C80E492
:0104AE00222B
:0D055A00C100C101011900011700011800C6
:1004E600759850538EBF538EFE53890F758BE875E2
:0904F6008DFFC2ABD28ED2AC2204
:100446008B108A118912AF051DEF601AC201AB101D
:100456000512E512AA117002051114F912011CF514
:07046600992001E280FB2256
:060326008B088A09890A18
:10032C00EDD395194002AD19E4FFEFC39D501B743A
:10033C00002FF8E2FEAB08050AE50AAA09700205CF
:0F034C000914F9EE1201350F80E0E4F519AF0541
:01035B00227F
:1003F300E519D394004021E517651960078519179E
:10040300E4F51822E518C3941E5010EF2518F518CB
:0B041300C3941E4006D20022E4F5173F
:01041E0022BB
:1004AF00300018C2007BFE7A0079407D28120326A7
:0B04BF00AD077BFE7A00794012016956
:0104CA00220F
:0300230002039243
:10039200C0E0C0D075D000C000C007309814C29829
:1003A200E519C39440500BAF19051974002FF8E5F5
:1003B20099F2309904C299D201D007D000D0D0D09E
:0203C200E03227
:10000E00538E7F5389F0758A66758CFCC28DD28CA7
:03001E00D2A92242
:03000B0002029F4F
:10029F00C0E0C0F0C083C082C0D075D000C000C025
:1002AF0001C002C003C004C005C006C007758CFCA6
:1002BF00758A66300206B2A1B2F88004D2F8D2A1D4
:1002CF007F011203F3D007D006D005D004D003D09E
:1002DF0002D001D000D0D0D082D083D0F0D0E03285
:10046D00E4F593F594F591F592F595F596F5B1F5CD
:10047D00B2F5B3F5B4F5C9F5CAF5CBF5CCF5E1F5A3
:02048D00E22269
:10035C0062616420636F6D6D616E642E0D0A006CBA
:10036C00656420616E642062757A7A206F6E006C11
:10037C00656420616E642062757A7A206F6666000F
:06038C000F10036B037B60
:02056700C102CF
:1002EF008B108A118912AF161516EF6028AB130504
:1002FF0015E515AA147002051414F912011CFFABB1
:10030F00100512E512AA117002051114F912011C41
:07031F006F60D3C322D3225B
:080169008B088A09890A8D0B3D
:10017100780C7C007D007BFF7A03798E7E007F0402
:100181001200F6E4FEEE90038C93FFE50BC39F4053
:1001910020EE25E0240CF8E6FC08E6AA047513FF1E
:1001A1008A14F5158F16AB08AA09A90A1202EF40A5
:1001B100040EBE02D0EE146012047024D2027F013C
:1001C1001205177BFF7A03796B800DC2027F011242
:1001D10005177BFF7A03797BE4FDFF1203C4800AD4
:1001E1007BFF7A03795C7D0E8024AB08AA09A90AFA
:1001F100AF0B050B8F82758300740D120147AF0B96
:10020100050B8F82758300740A120147AD0B12042E
:0102110046A6
:0102120022C9
:1005470012046D12041FD2AF12000E1204E6120439
:03055700AF80FB77
:10021F00020547E493A3F8E493A34003F68001F2A9
:10022F0008DFF48029E493A3F85407240CC8C333E0
:10023F00C4540F4420C8834004F456800146F6DFAF
:10024F00E4800B010204081020408090055AE47EE0
:10025F00019360BCA3FF543F30E509541FFEE493A4
:10026F00A360010ECF54C025E060A840B8E493A36B
:10027F00FAE493A3F8E493A3C8C582C8CAC583CA96
:10028F00F0A3C8C582C8CAC583CADFE9DEE780BE4E
:010569000091
:10002600E709F608DFFA8046E709F208DFFA803EBC
:1000360088828C83E709F0A3DFFA8032E309F608A9
:10004600DFFA8078E309F208DFFA807088828C8311
:10005600E309F0A3DFFA806489828A83E0A3F608C5
:10006600DFFA805889828A83E0A3F208DFFA804C9F
:1000760080D280FA80C680D4806980F28033801076
:1000860080A680EA809A80A880DA80E280CA8033DF
:1000960089828A83ECFAE493A3C8C582C8CCC58357
:1000A600CCF0A3C8C582C8CCC583CCDFE9DEE78027
:1000B6000D89828A83E493A3F608DFF9ECFAA9F0A6
:1000C600EDFB2289828A83ECFAE0A3C8C582C8CCFC
:1000D600C583CCF0A3C8C582C8CCC583CCDFEADE15
:1000E600E880DB89828A83E493A3F208DFF980CC77
:1000F60088F0EF60010E4E60C388F0ED2402B40470
:100106000050B9F582EB2402B4040050AF23234516
:06011600822390007673C5
:10011C00BB010689828A83E0225002E722BBFE02E1
:09012C00E32289828A83E4932214
:10013500BB010689828A83F0225002F722BBFE01A9
:02014500F322A3
:10014700F8BB010DE58229F582E5833AF583E8F0EE
:10015700225006E92582C8F622BBFE05E92582C89A
:02016700F22282
:00000001FF
