:100000000201F7EFD3940740037F01221202F0FEB2
:10001000D3940340037F0222EF7035EE7008120480
:10002000A9F4529352941202F0B401081204A942A6
:1000300093F452941202F0FEB402071204A9429300
:100040004294EEB4030A1204A9FEF45293EE4294D1
:10005000EF640170371202F0FE70081204A9F45226
:10006000915292EEB401081204A94291F4529212F4
:1000700002F0B402071204A9429142921202F0B4B3
:10008000030A1204A9FEF45291EE4292EF64027048
:10009000371202F0FE70081204A9F452955296EE3F
:1000A000B401081204A94295F452961202F0B40267
:1000B000071204A9429542961202F0B4030A1204F0
:1000C000A9FEF45295EE4296EF640370371202F0E7
:1000D000FE70081204A9F452B152B2EEB401081233
:1000E00004A942B1F452B21202F0B402071204A9F8
:1000F00042B142B21202F0B4030A1204A9FEF45251
:10010000B1EE42B2EF640470371202F0FE700812D2
:1001100004A9F452B352B4EEB401081204A942B3D4
:10012000F452B41202F0B402071204A942B342B46A
:100130001202F0B4030A1204A9FEF452B3EE42B460
:10014000EF640570371202F0FE70081204A9F45231
:10015000C952CAEEB401081204A942C9F452CA1223
:1001600002F0B402071204A942C942CA1202F0B452
:10017000030A1204A9FEF452C9EE42CAEF640670E3
:10018000371202F0FE70081204A9F452CB52CCEEE2
:10019000B401081204A942CBF452CC1202F0B4020A
:1001A000071204A942CB42CC1202F0B4030A120493
:1001B000A9FEF452CBEE42CCEF640770371202F086
:1001C000FF70081204A9F452E152E2EFB4010812E0
:1001D00004A942E1F452E21202F0B402071204A9A7
:1001E00042E142E21202F0B4030A1204A9FFF452FF
:1001F000E1EF42E27F0022787FE4F6D8FD758120AE
:1002000002023E0204BBE493A3F8E493A34003F686
:100210008001F208DFF48029E493A3F85407240C4A
:10022000C8C333C4540F4420C8834004F45680012B
:1002300046F6DFE4800B01020408102040809004A1
:1002400096E47E019360BCA3FF543F30E509541F40
:10025000FEE493A360010ECF54C025E060A840B82F
:10026000E493A3FAE493A3F8E493A3C8C582C8CAAD
:10027000C583CAF0A3C8C582C8CAC583CADFE9DE80
:10028000E780BE12046F900004E030000554FDF0DA
:1002900080034402F0900004E044011204777D04DE
:1002A00012038E900000E020E6147F147E001204FA
:1002B0007F7B017A0079007D0412034880E57F8806
:1002C0007E1312047F7F887E1312047F900000E06B
:1002D0005403FEA3E0FDEEFCED7806C333CE33CE2F
:1002E000D8F9FDAC06EC900006F0AF05EFA3F022C4
:1002F000BB010689828A83E0225002E722BBFE020C
:10030000E32289828A83E49322BB010CE58229F5EA
:1003100082E5833AF583E0225006E92582F8E62259
:10032000BBFE06E92582F8E222E58229F582E58313
:100330003AF583E49322BB010689828A83F0225036
:1003400002F722BBFE01F3228B088A09890A8D0B72
:100350001204F77F211204231203FFE4F50CE50CCD
:10036000C3950B5023120448AB08050AE50AAA09F5
:100370007002050914F9EF120336E50B14650C60E1
:10038000031204EA050C80D612050102050B8B0846
:100390008A09890A8D0B1204F77F201204231203A5
:1003A000FFE4F50CE50CC3950B501CAB08050AE502
:1003B0000AAA097002050914F91202F0FF120423B7
:1003C0001203FF050C80DD02050B7F057E00120481
:1003D0007FE4900004F0A37402120477FD12038EF0
:1003E0007F057E0012047F90000474D0F0A3740196
:1003F000F0FB7A0079047D0802038EFF120423E4E7
:10040000FDC2A01204E4D2A2D2A01204E430A20ED3
:10041000EDC394FF50080DA2A2E433FE80EFC2A00A
:10042000AF0622AE07E4FDC2A01204E4EE5480FF42
:10043000C4131313540124FF92A21204DFEE25E02B
:10044000FE0DBD08E2C2A022E4FED2A2FDC2A012AF
:1004500004DFEE25E0FE30A2034306010DBD08EDEA
:10046000C2A0AF062290000474D0F0A37401F090F3
:100470000007E054EFF022F07B017A007904227D3E
:10048000527C03ED1D70011C144C70F7EF1F7001BE
:100490001E144E70EA22480004D000000000409074
:1004A000884400000000000000900001020309756C
:1004B00000808D007B007A007900227F0A7E001286
:1004C000047F1204CD1203CA12051180FB750905C1
:1004D000E4F508FB7A0079087F02020003C2A21249
:1004E00004E4D2A0007F0BDFFE22C2A01204DDC212
:1004F000A01204E4D2A222D2A21204DFC2A20204F9
:10050000E4D2A2C2A01204DFC2A0221204DDD2A251
:0605100022D2000202836A
:00000001FF
