:03000000020003F8
:0C000300787FE4F6D8FD75810902004A00
:10016B007D527C03ED1D70011C144C70F7EF1F705A
:06017B00011E144E70EAA3
:01018100225B
:0A018200E4F593F594F5B1F5B2220F
:100123007580FFC2B3D2B4D2B57F017E0012016BDA
:08013300E58020E7FBC2B522C4
:10013B008F09120123C2B3C2B4D2B58509807F01E6
:08014B007E0012016BC2B52217
:100153008F09120123D2B3C2B4D2B58509807F01BE
:080163007E0012016BC2B522FF
:1000FC007F3812013B7F017E0012016B7F381201A9
:10010C003B7F0112013B7F0612013B7F017E0012F7
:07011C00016B7F0C02013BA7
:10008F001200FC7F057E0012016B7F8012013B7412
:10009F00002508F582E43400F583E0FF60071201C4
:1000AF0053050880EAE4F5087FC012013B7411255F
:1000BF0008F582E43400F583E0FF60071201530571
:0300CF000880EABC
:0100D200220B
:1000D3005100005E5F5E2057656C636F6D65205E47
:1000E3005F5E2000510011204920204C4F564520CF
:0800F30020465353543135003F
:08018C0012018212008F80FEB7
:10000F0002018CE493A3F8E493A34003F68001F27A
:10001F0008DFF48029E493A3F85407240CC8C333F2
:10002F00C4540F4420C8834004F456800146F6DFC1
:10003F00E4800B01020408102040809000D3E47E7E
:10004F00019360BCA3FF543F30E509541FFEE493B6
:10005F00A360010ECF54C025E060A840B8E493A37D
:10006F00FAE493A3F8E493A3C8C582C8CAC583CAA8
:10007F00F0A3C8C582C8CAC583CADFE9DEE780BE60
:0100FB000004
:00000001FF
