:0300000002091ED4
:0C091E00787FE4F6D8FD758139020932BB
:10081300323031352D30382D33302020323560439E
:100823000066736D63752E74616F62616F2E636F03
:020833006D0056
:1008D0007580FFC2B3D2B4D2B57F017E0012085733
:0808E000E58020E7FBC2B52210
:1008E8008F1D1208D0C2B3C2B4D2B5851D807F0156
:0808F8007E00120857C2B52270
:0608970014F9120455FFE4
:10089D008F1D1208D0D2B3C2B4D2B5851D807F0191
:0808AD007E00120857C2B522BB
:1008B500ED70048F1C8005EF2440F51CE51C448079
:0B08C500FF1208E87F017E00020857C8
:100777008B198A1A891B1208B5AB19AA1AA91B1259
:1007870004556014051BE51B7002051A1208977FB4
:09079700017E0012085780E122E6
:100900008B191208B5AF1912089D7F017E000208ED
:01091000578F
:060749008B198A1A891BBE
:10074F007F401208E8E4F51CAB19051BE51BAA1A3C
:10075F007002051A1208977F017E00120857051CB8
:07076F00E51CC3942040E1EA
:010776002260
:1007A0007F381208E87F057E001208577F3812084C
:1007B000E87F011208E87F061208E87F057E001234
:0707C00008577F0C0208E856
:1005C50078087C007D007BFF7A0879247E007F1106
:1005D50012042F1207A07BFF7A0879771207497B4F
:1005E500007A007908E4FDFF1207777BFF7A087926
:1005F500137D01E4FF120777E4FB7D017F041209F7
:10060500007B017D017F071209007B027D017F0AC6
:0E0615001209007B037D017F0E12090080FE9A
:10083500E4F593F594F591F592F595F596F5B1F501
:10084500B2F5B3F5B4F5C9F5CAF5CBF5CCF5E1F5D7
:02085500E2229D
:10085700E4FDFCC3ED9FEC9E5015E4FBFA0BBB00D7
:0F086700010AEB64784A70F50DBD00010C80E4C6
:01087600225F
:10067800C4E3B8F8CED2C1CBD2BBB8F63A0A000A66
:100688000049206769766520796F7520697427733A
:1006980020415343494920307825780A002F2A20E1
:1006A8003D3D3D3D3D3D3D3D3D3D3D3D3D3D3D3D72
:0B06B8003D3D3D3D3D3D202A2F0A0046
:100623008E1E8F1F759850438E01538EFB438E1081
:10063300AE1EAF1FAB07AA06E4F9F8FF7E847D0365
:10064300FC1206C3C374FF9FF5D7AE1EAF1FAB07E3
:10065300AA06E4F9F8FF7E847D03FC1206C3C37483
:10066300FF9FFF74FF9EFEE49DFDE49CFC7808124F
:05067300046E8FD62289
:08092A008F993099FDC299225A
:1007EE008B368A378938AB36AA37A938120455604A
:1007FE00130538E5387002053714F9120455FF1247
:05080E00092A80E2222E
:0C091100309807859939C298D200AF39A0
:01091D0022B7
:10070700E4FDFC120911AD073000367BFF7A06794C
:10071700781207EEAF0512092A7BFF7A067987124E
:1007270007EED2997BFF7A0679898C258D261200F0
:10073700653099FDC2997BFF7A0679A51207EEC24B
:0107470000B1
:01074800228E
:10087700080F120F0A1F02020F090F090F090B11A8
:100887001F11111F11111F000705070000000000AD
:080932001208351205C580FE14
:10035F00E709F608DFFA8046E709F208DFFA803E80
:10036F0088828C83E709F0A3DFFA8032E309F6086D
:10037F00DFFA8078E309F208DFFA807088828C83D5
:10038F00E309F0A3DFFA806489828A83E0A3F60889
:10039F00DFFA805889828A83E0A3F208DFFA804C63
:1003AF0080D280FA80C680D4806980F2803380103A
:1003BF0080A680EA809A80A880DA80E280CA8033A3
:1003CF0089828A83ECFAE493A3C8C582C8CCC5831B
:1003DF00CCF0A3C8C582C8CCC583CCDFE9DEE780EB
:1003EF000D89828A83E493A3F608DFF9ECFAA9F06A
:1003FF00EDFB2289828A83ECFAE0A3C8C582C8CCC0
:10040F00C583CCF0A3C8C582C8CCC583CCDFEADED8
:10041F00E880DB89828A83E493A3F208DFF980CC3A
:10042F0088F0EF60010E4E60C388F0ED2402B40433
:10043F000050B9F582EB2402B4040050AF232345DA
:06044F0082239003AF734D
:10045500BB010689828A83E0225002E722BBFE02A5
:09046500E32289828A83E49322D8
:1006C300C2D5E830E70FB2D5E4C39BFBE49AFAE462
:1006D30099F9E498F8EC30E717B2D51206F9120449
:1006E300FDE4C39BFBE49AFAE499F9E498F88003E8
:1006F3001204FD30D50DE4C39FFFE49EFEE49DFD8F
:04070300E49CFC2254
:10046E00E86010ECA2E713FCED13FDEE13FEEF13A4
:04047E00FFD8F02291
:10000300E5312425F8E605312278223007027825E8
:10001300E475F00112058F0204552000EB7F2ED208
:10002300008018EF540F2490D43440D4FF30040BD5
:10003300EF24BFB41A0050032461FFE532600215B8
:10004300320535E5357002053430070D7822E47545
:10005300F00112058FEF0204AF0207C77403D20742
:100063008003E4C207F5318B228A238924E4F53225
:10007300F534F535E53260077F2012003E80F575D3
:1000830033FFC201C200C202C203C205C206C208D4
:1000930012000CFF700D3007057F0012004FAF35C3
:1000A300AE3422B4255FC2D5C20412000CFF24D0A3
:1000B300B40A00501A75F00A783230D50508B6FF35
:1000C3000106C6A426F620D5047002D20380D924E3
:1000D300CFB41A00EF5004C2E5D20402024FD2019A
:1000E30080C6D20080C0D20280BCD2D580BAD205ED
:1000F30080B47F2012003E2002077401B532004015
:10010300F1120003FF12003E020077D208D20680EC
:1001130095120003FB120003FA120003F94A4B7015
:100123000679207A037BFF20022EE532602A7E00C7
:100133008E8275830012048260060EEE653370F0C2
:10014300C2D5EBC0E0EAC0E0E9C0E0EE120296D00F
:10015300E0F9D0E0FAD0E0FB120455FF60AAEBC04F
:10016300E0EAC0E0E9C0E012003ED0E02401F9D0AB
:10017300E03400FAD0E0FBE5330460DCD533D9800A
:10018300877BFF7A027992D202809C791080027970
:1001930008C206C2088008D2D5790A8004790AC247
:1001A300D5E533047002F533E4FAFDFEFF120003D4
:1001B300FC7B08200113120003FD7B1030000A12A0
:1001C3000003FE120003FF7B20EC3382D592D5504F
:1001D30013C3E43000069FFFE49EFEE42001039D69
:1001E300FDE49CFCE4CBF8C201EC700CCFCECDCC8B
:1001F300E824F8F870F38017C3EF33FFEE33FEED16
:1002030033FDEC33FCEB33FB994002FB0FD8E9EBF6
:10021300300105F8D0E0C448B201C0E00AEC4D4E0D
:100223004F78207B0070C2EAB5330040BCC0E012B7
:100233000298D0F0D0E0200104C4C0E0C4B201C0F1
:10024300F0120027D0F0D5F0EB02007712059F01E2
:100253001453018E5800E54C00E14201924F019A7C
:0F02630044019A4900FA4301A0550184460184E1
:100272004501844703405000E92D00ED2E01102B6B
:1002820000F123010E2003292A00A94800000108D9
:100292003F3F3F00790AA2D5200314300509B91067
:1002A200020404B9080104A2D52006025001042068
:1002B20002689202B532005034C0E07F2030031948
:1002C2007F30A20272067205500F1202EFC202C202
:1002D20006C205C2087F30800F300503E9C0E01274
:1002E200003E300503D0E0F9D0E0B532CC3005173E
:1002F2007F30B9100C12003E7F583004077F78809F
:1003020003B9080312003E3002057F2D02003E7F32
:10031200202008F87F2B2006F322920280CF286E3D
:10032200756C6C2900D2011200033001F8C2017809
:100332003230D50108F60200A92D50434958120067
:10034200032403B405004001E490033B9312002F01
:0D035200743A12002FD20375320402018E9E
:10048200BB010CE58229F582E5833AF583E022502F
:1004920006E92582F8E622BBFE06E92582F8E22279
:0D04A200E58229F582E5833AF583E4932293
:1004AF00BB010689828A83F0225002F722BBFE012C
:0204BF00F32226
:1004C10075F008758200EF2FFFEE33FECD33CDCCF2
:1004D10033CCC58233C5829BED9AEC99E582984075
:1004E1000CF582EE9BFEED9AFDEC99FC0FD5F0D652
:1004F100E4CEFBE4CDFAE4CCF9A88222B800C1B97C
:100501000059BA002DEC8BF084CFCECDFCE5F0CBB9
:10051100F97818EF2FFFEE33FEED33FDEC33FCEBF2
:1005210033FB10D703994004EB99FB0FD8E5E4F9AD
:10053100FA227818EF2FFFEE33FEED33FDEC33FC9A
:10054100C933C910D7059BE99A4007EC9BFCE99A8E
:10055100F90FD8E0E4C9FAE4CCFB2275F010EF2FD3
:10056100FFEE33FEED33FDCC33CCC833C810D707D3
:100571009BEC9AE899400AED9BFDEC9AFCE899F80E
:0E0581000FD5F0DAE4CDFBE4CCFAE4C8F922A1
:10058F00FAE6FB0808E6F925F0F618E6CA3AF6226D
:10059F00D083D082F8E4937012740193700DA3A3EB
:1005AF0093F8740193F5828883E4737402936860FF
:0605BF00EFA3A3A380DFFF
:1007C700EFB40A07740D1207D2740A309811A8996A
:1007D700B8130CC2983098FDA899C298B811F63092
:0707E70099FDC299F599226A
:00000001FF
