:030000000201EA10
:0C01EA00787FE4F6D8FD75810C0201F668
:1001C0007D527C03ED1D70011C144C70F7EF1F7005
:0601D000011E144E70EA4E
:0101D6002206
:1001D7005389F0438901758A33758CFED28CD2AF6F
:0301E700D2A92278
:03000B000200ED03
:1000ED00C0E0C0F0C083C082C0D075D000C000C0D9
:1000FD0001C002C003C004C005C006C007758A3325
:10010D00758CFEAF0CE4FCFDFEAB0BAA0AA909A889
:10011D0008C31200DC5004D2808002C280E50B249B
:10012D0001F50BE4350AF50AE43509F509E435085E
:10013D00F508AF0BAE0AAD09FCE47B28FAF9F8120D
:10014D00004AAC00AD01AE02AF038F0B8E0A8D09D4
:10015D008C08D007D006D005D004D003D002D00132
:0D016D00D000D0D0D082D083D0F0D0E032CE
:03000300C2C02256
:10017A0020C4207F0A7E001201C020C416050CE4A8
:10018A00F50BF50AF509F508E50CB40603750C0537
:10019A0030C4FD20C51F7F0A7E001201C020C5158C
:1001AA00150CE4F50BF50AF509F508E50C7003756D
:0601BA000C0130C5FD221E
:0B01F6001201D712000312017A80FBF7
:10000E0075F008758200EF2FFFEE33FECD33CDCCA9
:10001E0033CCC58233C5829BED9AEC99E58298402C
:10002E000CF582EE9BFEED9AFDEC99FC0FD5F0D609
:10003E00E4CEFBE4CDFAE4CCF9A88222B800C1B933
:10004E000059BA002DEC8BF084CFCECDFCE5F0CB71
:10005E00F97818EF2FFFEE33FEED33FDEC33FCEBAA
:10006E0033FB10D703994004EB99FB0FD8E5E4F965
:10007E00FA227818EF2FFFEE33FEED33FDEC33FC52
:10008E00C933C910D7059BE99A4007EC9BFCE99A46
:10009E00F90FD8E0E4C9FAE4CCFB2275F010EF2F8B
:1000AE00FFEE33FEED33FDCC33CCC833C810D7078B
:1000BE009BEC9AE899400AED9BFDEC9AFCE899F8C6
:0E00CE000FD5F0DAE4CDFBE4CCFAE4C8F92259
:1000DC00EB9FF5F0EA9E42F0E99D42F0E89C45F07A
:0100EC0022F1
:00000001FF
