:1000000002090BE4FED2A2FDC2A0120C80EE25E094
:10001000FE30A2034306010DBD08EDC2A0AF0622CB
:10002300020A06AC05AE07120C98AF06120BEA12D1
:0D0033000BC6AF04120BEA120BC67F0122B0
:100043000209978F318B328A338934E53164016039
:1000530003020175750801F509F50AF50BF50CF5B1
:100063000DF50EF535741C2535F582E434011208BF
:10007300D5B480F1E4F53574002535F582E4340018
:100083001208D5B480F11208DED394C040037F0276
:100093002290000A1205CBB40104D2BC8002C2BC78
:1000A3001205B2FFE598543F4FF598EF64C0600521
:1000B300EF6440705312087240037F022212089DBE
:1000C300FB64017022C28E538EFE5389BF5389CFC6
:1000D300438E401208C88F8D85398BC2AB5389BFBD
:1000E300538FFDD28E804FEB64027019538EEF4312
:1000F3008E011208C28FD68539D753AFFB538EF7C3
:10010300438E1080317F02221208DEFF70139000AD
:10011300081205CBB40105438E20801A538EDF806D
:1001230015EFB480119000081205CBB40105438785
:1001330080800353877F9000091208B6B40104D26C
:10014300AC8002C2AC1208FFB40104D29C8002C28C
:100153009C12090554C0FFE5A2543F4FF5A290003D
:100163000C1205CBB4010543971080035397EF7F1F
:100173000022E5316402600302022E750F02F510BE
:10018300F511F512F513F514F515F53574B8253594
:10019300F582E434011208D5B480F1E4F5357480B6
:1001A3002535F582E434001208D5B480F11208DE57
:1001B300FF64C06005EF6440704590000A1205CBF0
:1001C300B4010543B501800353B5FE1205B2B4C0B3
:1001D30005439A808003539A7F12087240037F027B
:1001E30022C3E49539F539E49538F5387401953728
:1001F300F537E49536F5361208BF1208F380037F0E
:1002030002221208E7B4010543AF01800353AFFE96
:100213001208FFB40105439A108003539AEF1209A1
:10022300055401FFE5BA54FE4FF5BAE531640360A6
:10023300030202F3751602F517F518F519F51AF509
:100243001BF51CF53574382535F582E434021208A4
:10025300D5B41CF1E4F53574002535F582E4340199
:100263001208D5B41CF11208DEFF64C06005EF6408
:1002730040705153ACDFEFB4C00543AC80800353EF
:10028300AC7F12086C40037F022212089DFB6402BC
:10029300700B53ACBF1208BF1208F3802AEB640142
:1002A300701F43AC4053D1F053AFDF43D10253D15E
:1002B300FB53D1FE1208C88FD48539D543D10880AA
:1002C300067F02227F02221208E7B4010543AF082A
:1002D300800353AFF71208FFB4010543AC1080034A
:1002E30053ACEF1209055402FFE5BA54FD0203B5FE
:1002F300E531640460030203BB751D02F51EF51F9F
:10030300F520F521F522F523F53574542535F582CD
:10031300E434021208D5B41CF1E4F535749C253598
:10032300F582E434011208D5B41CF11208DEFF642F
:10033300C06005EF644070515384DFEFB4C00543E0
:100343008480800353847F12086C40037F0222124F
:10035300089DFB6402700B5384BF1208BF1208F39D
:10036300802AEB6402701F43844053D10F53AFBF05
:1003730043D12053D1BF53D1EF1208C88FD285394F
:10038300D343D18080067F02227F02221208E7B482
:10039300010543AF10800353AFEF1208FFB401050B
:1003A30043841080035384EF1209055404FFE5BA14
:1003B30054FB4FF5BA7F00227F0322EFD39407400B
:1003C300037F01221205B2FED3940340037F02226E
:1003D300EF7035EE7008120C5CF4529352941205D0
:1003E300B2B40108120C5C4293F452941205B2FEAB
:1003F300B40207120C5C42934294EEB4030A120C4B
:100403005CFEF45293EE4294EF640170371205B22E
:10041300FE7008120C5CF452915292EEB401081271
:100423000C5C4291F452921205B2B40207120C5CB6
:10043300429142921205B2B4030A120C5CFEF452CA
:1004430091EE4292EF640270371205B2FE70081209
:100453000C5CF452955296EEB40108120C5C429572
:10046300F452961205B2B40207120C5C42954296FE
:100473001205B2B4030A120C5CFEF45295EE4296D6
:10048300EF640370371205B2FE7008120C5CF4526D
:10049300B152B2EEB40108120C5C42B1F452B21282
:1004A30005B2B40207120C5C42B142B21205B2B4F7
:1004B300030A120C5CFEF452B1EE42B2EF64047014
:1004C300371205B2FE7008120C5CF452B352B4EE4C
:1004D300B40108120C5C42B3F452B41205B2B40274
:1004E30007120C5C42B342B41205B2B4030A120CF5
:1004F3005CFEF452B3EE42B4EF640570371205B2FA
:10050300FE7008120C5CF452C952CAEEB401081210
:100513000C5C42C9F452CA1205B2B40207120C5C55
:1005230042C942CA1205B2B4030A120C5CFEF45269
:10053300C9EE42CAEF640670371205B2FE700812A4
:100543000C5CF452CB52CCEEB40108120C5C42CBDF
:10055300F452CC1205B2B40207120C5C42CB42CC6B
:100563001205B2B4030A120C5CFEF452CBEE42CC79
:10057300EF640770371205B2FF7008120C5CF45277
:10058300E152E2EFB40108120C5C42E1F452E212D0
:1005930005B2B40207120C5C42E142E21205B2B4A6
:1005A300030A120C5CFFF452E1EF42E27F0022BB2C
:1005B300010689828A83E0225002E722BBFE02E31E
:1005C3002289828A83E49322BB010CE58229F58286
:1005D300E5833AF583E0225006E92582F8E622BB5B
:1005E300FE06E92582F8E222E58229F582E5833ACF
:1005F300F583E49322BB010689828A83F0225002A9
:10060300F722BBFE01F32275F008758200EF2FFF7E
:10061300EE33FECD33CDCC33CCC58233C5829BEDD7
:100623009AEC99E58298400CF582EE9BFEED9AFDDB
:10063300EC99FC0FD5F0D6E4CEFBE4CDFAE4CCF98B
:10064300A88222B800C1B90059BA002DEC8BF084FE
:10065300CFCECDFCE5F0CBF97818EF2FFFEE33FECC
:10066300ED33FDEC33FCEB33FB10D703994004EB84
:1006730099FB0FD8E5E4F9FA227818EF2FFFEE3350
:10068300FEED33FDEC33FCC933C910D7059BE99A62
:100693004007EC9BFCE99AF90FD8E0E4C9FAE4CCF3
:1006A300FB2275F010EF2FFFEE33FEED33FDCC335D
:1006B300CCC833C810D7079BEC9AE899400AED9B46
:1006C300FDEC9AFCE899F80FD5F0DAE4CDFBE4CC25
:1006D300FAE4C8F922EB9FF5F0EA9E42F0E99D4265
:1006E300F0E89C45F022E8600FECC313FCED13FD2A
:1006F300EE13FEEF13FFD8F122BB010DE58229F5BE
:1007030082E5833AF5830207395007E92582F80227
:10071300072CBBFE07E92582F8020745E58229F588
:1007230082E5833AF583020752E6FB08E6F908E619
:10073300FA08E6CBF822E0F8A3E0F9A3E0FAA3E095
:10074300FB22E2FB08E2F908E2FA08E2CBF822E432
:1007530093F8740193F9740293FA740393FB220DD3
:10076300202F2A2054657374204F4B2E2E2E202ABF
:100773002F200D0A000D202F2A2054657374204565
:1007830052524F522E2E2E202A2F200D0A000D20BA
:100793002F2A203D3D3D3D3D3D3D3D3D3D3D3D3DC4
:1007A3003D3D3D3D3D3D3D3D3D3D3D3D3D3D3D3D76
:1007B3003D3D3D3D3D3D3D3D3D3D3D3D3D3D202A96
:1007C3002F200D0A000D20BBB6D3ADCAB9D3C3EF9A
:1007D30077CCECC8FECC96A3A8465353543135A32B
:1007E300A9BFAAB7A2B0E52E2E2E2E2E2E2E2E2E68
:1007F3002E2E2E2E2E200D0A000D20B1BEBFAAB71D
:10080300A2B0E5C5E4CCD7CAE9BCAEA1AAA1AAA10E
:10081300B6D3EB5354433135B5A5C6ACBBFAC7A326
:10082300CAD6B5C4C4C7D0A9C4EAA1B7200D0A006B
:100833000D20B1BEBFAAB7A2B0E5C5E4CCD7CAD3D9
:10084300C6B5A1AAA1AAA1B6C9EEC8EBC7B3B3F6B0
:10085300CDE6D7AA5354433135B5A5C6ACBBFAA1EF
:10086300B7200D0A00123456ABAB32AA33A9349029
:1008730000021206FC7F007E307D2A7C00120646B1
:100883008F398E388D378C36E4FFFE7D01FCAB3912
:10089300AA38A937A836C30206D8C3E49539F5396F
:1008A300E49538F53874019537F537E49536F53620
:1008B300900001AB32AA33A9340205CB538EEF5318
:1008C3008EF7438E04AF39AE38AD37AC36780802B5
:1008D30006E9F583E4F00535E53522AB32AA33A901
:1008E300340205B2AB32AA33A9349000090205CB16
:1008F3008FD68539D753AFFB438E10229000070262
:1009030005CB90000B0205CB787FE4F6D8FD75810B
:100913003D020952020ACCE493A3F8E493A34003F3
:10092300F68001F208DFF48029E493A3F854072446
:100933000CC8C333C4540F4420C8834004F4568006
:100943000146F6DFE4800B0102040810204080908A
:100953000CACE47E019360BCA3FF543F30E5095423
:100963001FFEE493A360010ECF54C025E060A840AE
:10097300B8E493A3FAE493A3F8E493A3C8C582C8A5
:10098300CAC583CAF0A3C8C582C8CAC583CADFE97A
:10099300DEE780BEC0E0C083C082C0D075D000C097
:1009A30007E59A30E025539AFEE515701EE513C35B
:1009B30094804003751300AF13051374802FF582E1
:1009C300E43400F583E59BF0751405E59A30E128DE
:1009D300539AFDE5106511601C74B82510F582E487
:1009E3003401F583E0F59B0510E510C394804008BE
:1009F3007510008003751200D007D0D0D082D08349
:100A0300D0E032C0E0C083C082C0D075D000C00740
:100A1300309824C298E50E701EE50CC39480400301
:100A2300750C00AF0C050C74002FF582E43400F54F
:100A330083E599F0750D05309927C299E509650A93
:100A4300601C741C2509F582E43401F583E0F599F3
:100A53000509E509C3948040087509008003750BF7
:100A630000D007D0D0D082D083D0E032E4F5247B0D
:100A7300FF7A087968752A047D287FA0120B977F77
:100A83000A7E00120C327B007A00793A752A047DC3
:100A9300287FA0120B25E4F524743A2524F8E6FFF9
:100AA300E524900868937BFFB507067A077962808F
:100AB300047A077978120C497F0A7E00120C3205FA
:100AC30024E524C3940440D1227F647E00120C32B7
:100AD300120B69120C6E120B0D7BFF7A0779C81289
:100AE3000C497F0A7E00120C327BFF7A0779FC12D5
:100AF3000C497F0A7E00120C327BFF7A087933128D
:100B03000C49120B0D120A6F80FE7F0A7E00120C35
:100B1300327BFF7A077991120C497F0A7E00120C0F
:100B230032228F258B278A288929120026120C98B6
:100B3300E5254401120BC2E4FCECC3952A502112B3
:100B43000003AB270529E529AA287002052814F913
:100B5300EF1205F8E52A146C6003120C8B0C80D994
:100B6300120CA2020CB37524407525027529007579
:100B730028C2752701752600752B01E4F52C752D08
:100B830001F52EF52FF530FB7A0079247F01120051
:100B930046D2AF228B278A288929120026E4FCEC4F
:100BA300C3952A5017AB270529E529AA2870020502
:100BB3002814F91205B2120BC20C80E3020CB3FF26
:100BC300120BEAE4FDC2A0120C85D2A2D2A0120C31
:100BD3008530A20EEDC394FF50080DA2A2E433FEAC
:100BE30080EFC2A0AF0622AE07E4FDC2A0120C85BF
:100BF300EE5480FFC4131313540124FF92A2120C6A
:100C030080EE25E0FE0DBD08E2C2A022741C250A79
:100C1300F582E43401F583EFF0050AE50AC3948015
:100C23004003E4F50AE50B7005750B01D299227DAB
:100C3300527C03ED1D70011C144C70F7EF1F700103
:100C43001E144E70EA221205B2FF600C120C0F74D0
:100C53000129F9E43AFA80EE229000010205CB75EE
:100C630000808D007B007A00790022752505E4F56C
:100C730024FB7A0079247F020203BEC2A2120C85F0
:100C8300D2A0007F0BDFFE22C2A0120C7EC2A012F4
:100C93000C85D2A222D2A2120C80C2A2020C85D24F
:100CA300A2C2A0120C80C2A022043A0000000000DD
:060CB300120C7ED2A22209
:00000001FF
