:030000000202EC0D
:0C02EC00787FE4F6D8FD75811D0202F851
:1001EE00323031352D30382D3330202032356043CA
:1001FE000066736D63752E74616F62616F2E636F2F
:02020E006D0081
:1002AB007580FFC2B3D2B4D2B57F017E0012023289
:0802BB00E58020E7FBC2B5223B
:1002C3008F1D1202ABC2B3C2B4D2B5851D807F01AC
:0802D3007E00120232C2B522C6
:0602720014F91200F9FF6F
:100278008F1D1202ABD2B3C2B4D2B5851D807F01E7
:080288007E00120232C2B52211
:10029000ED70048F1C8005EF2440F51CE51C4480A4
:0B02A000FF1202C37F017E0002023249
:10019E008B198A1A891B120290AB19AA1AA91B1263
:1001AE0000F96014051BE51B7002051A1202727F1E
:0901BE00017E0012023280E122F0
:1002DB008B19120290AF191202787F017E00020275
:0102EB0032E0
:060170008B198A1A891B9D
:100176007F401202C3E4F51CAB19051BE51BAA1A46
:100186007002051A1202727F017E00120232051CED
:07019600E51CC3942040E1C9
:01019D00223F
:1001C7007F381202C37F057E001202327F38120287
:1001D700C37F011202C37F061202C37F057E00128E
:0701E70002327F0C0202C38B
:1001120078087C007D007BFF7A0179FF7E007F11E9
:100122001200D31201C77BFF7A0279521201707B4F
:10013200007A007908E4FDFF12019E7BFF7A0179C3
:10014200EE7D01E4FF12019EE4FB7D017F041202B9
:10015200DB7B017D017F071202DB7B027D017F0ACF
:0E0162001202DB7B037D017F0E1202DB80FEAA
:10021000E4F593F594F591F592F595F596F5B1F52C
:10022000B2F5B3F5B4F5C9F5CAF5CBF5CCF5E1F502
:02023000E222C8
:10023200E4FDFCC3ED9FEC9E5015E4FBFA0BBB0002
:0F024200010AEB64784A70F50DBD00010C80E4F1
:01025100228A
:10025200080F120F0A1F02020F090F090F090B11D3
:100262001F11111F11111F000705070000000000D8
:0802F80012021012011280FE37
:10000300E709F608DFFA8046E709F208DFFA803EDF
:1000130088828C83E709F0A3DFFA8032E309F608CC
:10002300DFFA8078E309F208DFFA807088828C8334
:10003300E309F0A3DFFA806489828A83E0A3F608E8
:10004300DFFA805889828A83E0A3F208DFFA804CC2
:1000530080D280FA80C680D4806980F28033801099
:1000630080A680EA809A80A880DA80E280CA803302
:1000730089828A83ECFAE493A3C8C582C8CCC5837A
:10008300CCF0A3C8C582C8CCC583CCDFE9DEE7804A
:100093000D89828A83E493A3F608DFF9ECFAA9F0C9
:1000A300EDFB2289828A83ECFAE0A3C8C582C8CC1F
:1000B300C583CCF0A3C8C582C8CCC583CCDFEADE38
:1000C300E880DB89828A83E493A3F208DFF980CC9A
:1000D30088F0EF60010E4E60C388F0ED2402B40493
:1000E3000050B9F582EB2402B4040050AF2323453A
:0600F3008223900053730C
:1000F900BB010689828A83E0225002E722BBFE0205
:09010900E32289828A83E4932237
:00000001FF
