:1000000002001F750A20750B20E4F50CF50DF50EA6
:10001000F50FFB7A00790A1204F87F010206537883
:100020007FE4F6D8FD75810F02032F02065EEFD341
:10003000940740037F0122120282FED394034003FF
:100040007F0222EF7041EE700B90000112029BF4D0
:1000500052935294120282B4010B90000112029B3F
:100060004293F45294120282FEB4020A90000112EA
:10007000029B42934294EEB4030D90000112029B46
:10008000FEF45293EE4294EF64017043120282FE3A
:10009000700B90000112029BF452915292EEB40147
:1000A0000B90000112029B4291F45292120282B410
:1000B000020A90000112029B42914292120282B403
:1000C000030D90000112029BFEF45291EE4292EF5A
:1000D00064027043120282FE700B90000112029BB8
:1000E000F452955296EEB4010B90000112029B421D
:1000F00095F45296120282B4020A90000112029BF9
:1001000042954296120282B4030D90000112029BA6
:10011000FEF45295EE4296EF64037043120282FEA3
:10012000700B90000112029BF452B152B2EEB40176
:100130000B90000112029B42B1F452B2120282B43F
:10014000020A90000112029B42B142B2120282B432
:10015000030D90000112029BFEF452B1EE42B2EF89
:1001600064047043120282FE700B90000112029B25
:10017000F452B352B4EEB4010B90000112029B4250
:10018000B3F452B4120282B4020A90000112029B2C
:1001900042B342B4120282B4030D90000112029BDA
:1001A000FEF452B3EE42B4EF64057043120282FED5
:1001B000700B90000112029BF452C952CAEEB401B6
:1001C0000B90000112029B42C9F452CA120282B47F
:1001D000020A90000112029B42C942CA120282B472
:1001E000030D90000112029BFEF452C9EE42CAEFC9
:1001F00064067043120282FE700B90000112029B93
:10020000F452CB52CCEEB4010B90000112029B428F
:10021000CBF452CC120282B4020A90000112029B6B
:1002200042CB42CC120282B4030D90000112029B19
:10023000FEF452CBEE42CCEF64077043120282FF11
:10024000700B90000112029BF452E152E2EFB401F4
:100250000B90000112029B42E1F452E2120282B4BE
:10026000020A90000112029B42E142E2120282B4B1
:10027000030D90000112029BFFF452E1EF42E27F76
:100280000022BB010689828A83E0225002E722BB5A
:10029000FE02E32289828A83E49322BB010CE58279
:1002A00029F582E5833AF583E0225006E92582F8B4
:1002B000E622BBFE06E92582F8E222E58229F582E4
:1002C000E5833AF583E49322EF8DF0A4A8F0CF8C78
:1002D000F0A428CE8DF0A42EFE22BC000BBE002977
:1002E000EF8DF084FFADF022E4CCF875F008EF2F2D
:1002F000FFEE33FEEC33FCEE9DEC984005FCEE9DEA
:10030000FE0FD5F0E9E4CEFD22EDF8F5F0EE842005
:10031000D21CFEADF075F008EF2FFFED33FD400766
:10032000985006D5F0F222C398FD0FD5F0EA2212BC
:1003300000037F647E0012063C12054B7F647E0042
:1003400012063C12058D7F647E0012063C7F05126A
:10035000049B8E088F097F647E0012063CAF09AEB5
:10036000081204337F647E0012063CAF09AE081207
:1003700003B77F647E0012063CE509AE087806CE1E
:10038000C313CE13D8F9FF30E004C2F88002D2F8CC
:10039000EF30E104C2F98002D2F9EF30E204C2FA90
:1003A0008002D2FAEF30E304C2FB8002D2FB7FC8A6
:1003B0007E0012063C80967C007D211202C8EE135E
:1003C00013543FFB7A007C037DE8FF7E001202DAC3
:1003D0007C007D0A1202DA8D0A7C007D64AF037E08
:1003E000001202DA7C007D0A1202DA8D0B7C007D9D
:1003F0000AAF037E001202DA7C007D0A1202DA8D57
:100400000C7E00AF037C007D0A1202DA8D0D7FC0E6
:10041000120624E50A2430FF1205F4E50B2430FF10
:100420001205F4E50C2430FF1205F4E50D2430FF2D
:100430000205F4AB07AA067C037DE81202DA7C0011
:100440007D0A1202DA8D0A7C007D64AF03AE0212CF
:1004500002DA7C007D0A1202DA8D0B7C007D0AAF85
:1004600003AE021202DA7C007D0A1202DA8D0CAEB3
:1004700002AF037C007D0A1202DA8D0D7F80120626
:1004800024E50A1205F1E50B1205F1E50C2430FF15
:100490001205F4E50D2430FF0205F4EFD394074074
:1004A000028050E4F5BDF5BEE5BC54E044084FF5CC
:1004B000BC00000000E4FBE5BC30E43353BCEFE5D6
:1004C0009730E509E5BD5403ADBEFC801DAFBD7C92
:1004D00000AD07ED7E007802C333CE33CED8F9FFEE
:1004E000E5BE5403FDEEFCEF4DFDAF05AE04220B5F
:1004F000BBFAC47E047F0022120282F59D900001A7
:1005000012029BFFE5BC549F4FF5BC900002120203
:100510009BB4010543BC80800353BC7F9000031251
:10052000029BB4010543972080035397DF90000599
:1005300012029BB40104D2AD8002C2AD900004123D
:10054000029BB40103D2BD22C2BD22750A03750B02
:100550000F7B007A00790A7F0712002E750A037557
:100560000B387B007A00790A7F0312002EE4F50A2B
:10057000750BFFFB7A00790AFF12002E750A0175D0
:100580000B407B007A00790A7F0102002E1205C51C
:100590007F327E0012063C7F80120624E50A900618
:1005A0006293FF60071205F4050A80F0E4F50A7F04
:1005B000C0120624E50A90067493FF60071205F442
:1005C000050A80F0227F381206247F381206247F25
:1005D000057E0012063C7F381206247F0112062495
:1005E0007F061206247F057E0012063C7F0C020661
:1005F000242430FF8F0E12060CD2B3C2B4D2B585BC
:100600000E807F057E0012063CC2B5227580FFC2B7
:10061000B3D2B4D2B57F057E0012063CE58020E758
:10062000FBC2B5228F0E12060CC2B3C2B4D2B5857E
:100630000E807F057E0012063CC2B5227D527C03EF
:10064000ED1D70011C144C70F7EF1F70011E144E4D
:1006500070EA22BF010443BC802253BC7F2253BCFA
:10066000EF322020202020202020202057656C639E
:100670006F6D65002020202056202020202046532A
:05068000535431350068
:00000001FF
