:1000000002001F750A20750B20E4F50CF50DF50EA6
:10001000F50FFB7A00790A12045C7F010205B778BC
:100020007FE4F6D8FD75810F02031D0205C2EFD3F0
:10003000940740037F0122120282FED394034003FF
:100040007F0222EF7041EE700B90000112029BF4D0
:1000500052935294120282B4010B90000112029B3F
:100060004293F45294120282FEB4020A90000112EA
:10007000029B42934294EEB4030D90000112029B46
:10008000FEF45293EE4294EF64017043120282FE3A
:10009000700B90000112029BF452915292EEB40147
:1000A0000B90000112029B4291F45292120282B410
:1000B000020A90000112029B42914292120282B403
:1000C000030D90000112029BFEF45291EE4292EF5A
:1000D00064027043120282FE700B90000112029BB8
:1000E000F452955296EEB4010B90000112029B421D
:1000F00095F45296120282B4020A90000112029BF9
:1001000042954296120282B4030D90000112029BA6
:10011000FEF45295EE4296EF64037043120282FEA3
:10012000700B90000112029BF452B152B2EEB40176
:100130000B90000112029B42B1F452B2120282B43F
:10014000020A90000112029B42B142B2120282B432
:10015000030D90000112029BFEF452B1EE42B2EF89
:1001600064047043120282FE700B90000112029B25
:10017000F452B352B4EEB4010B90000112029B4250
:10018000B3F452B4120282B4020A90000112029B2C
:1001900042B342B4120282B4030D90000112029BDA
:1001A000FEF452B3EE42B4EF64057043120282FED5
:1001B000700B90000112029BF452C952CAEEB401B6
:1001C0000B90000112029B42C9F452CA120282B47F
:1001D000020A90000112029B42C942CA120282B472
:1001E000030D90000112029BFEF452C9EE42CAEFC9
:1001F00064067043120282FE700B90000112029B93
:10020000F452CB52CCEEB4010B90000112029B428F
:10021000CBF452CC120282B4020A90000112029B6B
:1002200042CB42CC120282B4030D90000112029B19
:10023000FEF452CBEE42CCEF64077043120282FF11
:10024000700B90000112029BF452E152E2EFB401F4
:100250000B90000112029B42E1F452E2120282B4BE
:10026000020A90000112029B42E142E2120282B4B1
:10027000030D90000112029BFFF452E1EF42E27F76
:100280000022BB010689828A83E0225002E722BB5A
:10029000FE02E32289828A83E49322BB010CE58279
:1002A00029F582E5833AF583E0225006E92582F8B4
:1002B000E622BBFE06E92582F8E222E58229F582E4
:1002C000E5833AF583E49322BC000BBE0029EF8D51
:1002D000F084FFADF022E4CCF875F008EF2FFFEECC
:1002E00033FEEC33FCEE9DEC984005FCEE9DFE0FDA
:1002F000D5F0E9E4CEFD22EDF8F5F0EE8420D21C35
:10030000FEADF075F008EF2FFFED33FD400798507C
:1003100006D5F0F222C398FD0FD5F0EA22120003B1
:100320007F647E001205A01204AF7F647E00120578
:10033000A01204F17F647E001205A07F021203FF69
:100340008E088F097F0A7E001205A0AF09AE081241
:1003500003977F0A7E001205A0E509AE087806CE55
:10036000C313CE13D8F9FF30E004C2F88002D2F8EC
:10037000EF30E104C2F98002D2F9EF30E204C2FAB0
:100380008002D2FAEF30E304C2FB8002D2FB7FC8C6
:100390007E001205A080A4AB07AA067C037DE812AC
:1003A00002C87C007D0A1202C88D0A7C007D64AF01
:1003B00003AE021202C87C007D0A1202C88D0B7CBB
:1003C000007D0AAF03AE021202C87C007D0A120251
:1003D000C88D0CAE02AF037C007D0A1202C88D0DE1
:1003E0007F80120588E50A120555E50B120555E5D3
:1003F0000C2430FF120558E50D2430FF020558EF9C
:10040000D3940740028050E4F5BDF5BEE5BC54E04E
:1004100044084FF5BC00000000E4FBE5BC30E433C9
:1004200053BCEFE59730E509E5BD5403ADBEFC8054
:100430001DAFBD7C00AD07ED7E007802C333CE3327
:10044000CED8F9FFE5BE5403FDEEFCEF4DFDAF0540
:10045000AE04220BBBFAC47E047F0022120282F596
:100460009D90000112029BFFE5BC549F4FF5BC908C
:10047000000212029BB4010543BC80800353BC7F81
:1004800090000312029BB401054397208003539709
:10049000DF90000512029BB40104D2AD8002C2AD10
:1004A00090000412029BB40103D2BD22C2BD22758A
:1004B0000A03750B0F7B007A00790A7F0712002E62
:1004C000750A03750B387B007A00790A7F031200E6
:1004D0002EE4F50A750BFFFB7A00790AFF12002E55
:1004E000750A01750B047B007A00790A7F0102000E
:1004F0002E1205297F327E001205A07F801205880A
:10050000E50A9005C693FF6007120558050A80F0BA
:10051000E4F50A7FC0120588E50A9005D893FF60CC
:1005200007120558050A80F0227F381205887F38A7
:100530001205887F057E001205A07F381205887F8E
:10054000011205887F061205887F057E001205A02E
:100550007F0C0205882430FF8F0E120570D2B3C2C3
:10056000B4D2B5850E807F057E001205A0C2B522EB
:100570007580FFC2B3D2B4D2B57F057E001205A04C
:10058000E58020E7FBC2B5228F0E120570C2B3C210
:10059000B4D2B5850E807F057E001205A0C2B522BB
:1005A0007D527C03ED1D70011C144C70F7EF1F7021
:1005B000011E144E70EA22BF010443BC802253BCCA
:1005C0007F2253BCEF32202020202020202020201A
:1005D00057656C636F6D650020202020465353548F
:0A05E00031352020202020202000CB
:00000001FF
