:10000E000512A20392D5A2B2920320D50302009C40
:10001E0020037BAF12E4F512EFD394964003C20295
:10002E0022EFC39461400BEF947B4062D2027518AD
:10003E002022300259EFD3941E4003C20222E51350
:10004E00C313F513EFC3941040034313801518E543
:10005E0018702CC202E513F465147032E519FE7C9B
:10006E0000E4251AF517EC3EF516851415E4B517C0
:10007E0009E516B4FF04C2008002D200D20122E5C7
:0E008E00185407700985191A85141985131462
:01009C002241
:10014B003F065B4F666D7D077F6F777C395E7971FC
:10015B000040761E7038375C733E783D6750376EC3
:10016B00BF86DBCFE6EDFD87FFEF460102040810EB
:03017B00204080A1
:10009D00E4F511438E805389FB5389FC758CF775FC
:1000AD008A5CD2A9D28C75100AD2AF7F08780874F9
:1000BD0011F608DFFC750C10750D103004FDC2042F
:1000CD003001F8C201E516C4540FF508E516540FBA
:1000DD00F509E516C4F854F0C8E517C4540F485493
:1000ED000FF50AE517540FF50BE515C4540FF50E72
:0800FD00E515540FF50F80C357
:1001A600E4FEEF25E0FF92C8D2CBC2CB0EBE08F22A
:0101B6002226
:10017E00E51190017693F4F5E874082511F8E690F0
:10018E00014B93FF1201A6D2CAC2CA0511E511C3D3
:08019E0094084003E4F511226E
:03000B00020105EA
:10010500C0E0C0F0C083C082C0D075D000C000C0C0
:1001150001C002C003C004C005C006C00712000E1E
:10012500D5100875100AD20412017ED007D006D06A
:1001350005D004D003D002D001D000D0D0D082D0D9
:0601450083D0F0D0E0328F
:030000000201B743
:0C01B700787FE4F6D8FD75812002009DE1
:00000001FF
