:100000000205B80206C2052A323232020006323236
:070010003232320200093216
:10001B000200107F647E001207AFD2AF12004312B2
:10002B000791120086300105120714C2017B017A79
:10003B0000792112046380ED752204E4F521FB7A2B
:0B004B000079217F030200A602000ADA
:03005B0002000E92
:10006300020011E4FEEF3392C8C2CBEF25E0FFD2CA
:0C007300CB0EBE08F0C2CA0000D2CA22A8
:1000830002000F7521017522017523017B007A009F
:070093007921E4FF020514CE
:03009B000200124E
:1000A300020016EFD3940740037F0122120644FE99
:1000B300D3940340037F0222EF7035EE70081207DA
:1000C300C6F452935294120644B401081207C6426E
:1000D30093F45294120644FEB402071207C64293E5
:1000E3004294EEB4030A1207C6FEF45293EE42940E
:1000F300EF64017037120644FE70081207C6F4520B
:10010300915292EEB401081207C64291F452921230
:100113000644B402071207C642914292120644B43F
:10012300030A1207C6FEF45291EE4292EF64027084
:1001330037120644FE70081207C6F452955296EE23
:10014300B401081207C64295F45296120644B4024B
:10015300071207C642954296120644B4030A1207D1
:10016300C6FEF45295EE4296EF64037037120644CE
:10017300FE70081207C6F452B152B2EEB40108126F
:1001830007C642B1F452B2120644B402071207C6BC
:1001930042B142B2120644B4030A1207C6FEF45235
:1001A300B1EE42B2EF64047037120644FE700812D7
:1001B30007C6F452B352B4EEB401081207C642B3F1
:1001C300F452B4120644B402071207C642B342B44F
:1001D300120644B4030A1207C6FEF452B3EE42B445
:1001E300EF64057037120644FE70081207C6F45216
:1001F300C952CAEEB401081207C642C9F452CA1260
:100203000644B402071207C642C942CA120644B4DE
:10021300030A1207C6FEF452C9EE42CAEF6406701F
:1002230037120644FE70081207C6F452CB52CCEEC6
:10023300B401081207C642CBF452CC120644B402EE
:10024300071207C642CB42CC120644B4030A120774
:10025300C6FEF452CBEE42CCEF640770371206446D
:10026300FF70081207C6F452E152E2EFB40108121C
:1002730007C642E1F452E2120644B402071207C66B
:1002830042E142E2120644B4030A1207C6FFF452E3
:10029300E1EF42E27F0022AD07EDD3940440037FF8
:1002A3000122ED705F120644FED3940340037F02E4
:1002B30022C28CC2A9C2B95389F0538E7F538FFED9
:1002C30012077FB40102D2A990000112065DB401A6
:1002D30002D2B9EE120777FF7003438E80EFB402A8
:1002E30003438904120785B40103438F0112077185
:1002F300E5F0F58C120771F58A12078BB40102D26F
:100303008C7F0022ED64017062120644FEC39403E5
:1003130040037F0222C28EC2ABC2BB53890F538EEE
:10032300BF538FFD12077FB40102D2AB90000112BD
:10033300065DB40102D2BBEEC454F0120777FF701E
:1003430003438E40EFB40203438940120785B4018F
:1003530003438F02120771E5F0F58D120771F58BD8
:1003630012078BB40102D28E7F0022ED6402704E1D
:10037300120779FED3940240037F0222538EE35384
:10038300AFFB538FFB12077FB4010343AF04EE703F
:1003930003438E04120779B40203438E08120785C0
:1003A300B40103438F04120771E5F0F5D612077108
:1003B300F5D712078BB40103438E107F0022ED643F
:1003C30003704B120779FED3940240037F0222533A
:1003D300D1F053AFDF12077FB4010343AF20EE70B8
:1003E3000343D102120779B4020343D106120785EE
:1003F300B4010343D101120771E5F0F5D41207717B
:10040300F5D512078BB4010343D1087F0022ED64B5
:1004130004704A120779FED3940240037F022253E9
:10042300D10F53AFBF12077FB4010343AF40EE7048
:100433000343D120120779B4020343D16012078525
:10044300B4010343D110120771FDACF0ECF5D28D6A
:10045300D312078BB4010343D1807F00227F022292
:100463008B218A2289238518E81206441204F91283
:1004730000668519E8AB21AA22A9231206441205B6
:1004830007120066851AE89000011204C9851BE86B
:100493009000011204E3120066851CE8900002122A
:1004A30004C9851DE89000021204E3120066851E4C
:1004B300E81207D81204F9120066851FE81207D85C
:1004C300120507020066AB21AA22A92312065DC406
:1004D300540F2408F8E6FF120066E4FF12006622B8
:1004E300AB21AA22A92312065D540F2408F8E6FFC4
:1004F300120066E4FF22C4540F2408F8E6FF12003A
:1005030066E4FF22540F2408F8E6FF120066E4FFB6
:1005130022EFD3940440037F0122EF702A1207E4F1
:10052300B40104D2A88002C2A890000112065DB4EF
:100533000104D2B88002C2B8120644B40104D288BE
:100543008002C2887F0022EF6401702A1207E4B49C
:100553000104D2AA8002C2AA90000112065DB4016E
:1005630004D2BA8002C2BA120644B40104D28A8009
:1005730002C28A7F0022BF02111207E4B4010543BD
:100583008F108003538FEF7F0022BF03111207E404
:10059300B40105438F208003538FDF7F0022BF0404
:1005A300111207E4B40105438F408003538FBF7FCB
:1005B30000227F0222787FE4F6D8FD75812A0205A6
:1005C300FF02001EE493A3F8E493A34003F6800123
:1005D300F208DFF48029E493A3F85407240CC8C37A
:1005E30033C4540F4420C8834004F456800146F6B4
:1005F300DFE4800B0102040810204080900751E4DF
:100603007E019360BCA3FF543F30E509541FFEE411
:1006130093A360010ECF54C025E060A840B8E493D3
:10062300A3FAE493A3F8E493A3C8C582C8CAC58315
:10063300CAF0A3C8C582C8CAC583CADFE9DEE7809A
:10064300BEBB010689828A83E0225002E722BBFEF9
:1006530002E32289828A83E49322BB010CE5822987
:10066300F582E5833AF583E0225006E92582F8E630
:1006730022BBFE06E92582F8E222E58229F582E51E
:10068300833AF583E49322BB0110E58229F582E5E1
:10069300833AF583E0F5F0A3E0225009E92582F8D7
:1006A30086F008E622BBFE0AE92582F8E2F5F008A7
:1006B300E222E5832AF583E993F5F0A3E99322C0C7
:1006C300E0C083C082C0D0C2A8200007752A00D230
:1006D300008033300030E52AC39432500AE52AC340
:1006E3009420400375290074002529F582E4340021
:1006F300F583E52AF0752A000529E529B42107D2F7
:1007030001752900C200D2A8D0D0D082D083D0E016
:10071300327E01E4FDE4FC74002EF582E43400F53E
:1007230083E0D3940640054307808000ECC394071D
:100733005004EFC313FF0E0CBC08DC74212DF582AB
:10074300E43400F583EFF0E4FF0DBD04C822012A71
:10075300000818FEFDFBF7EFDFBF7F10083F065BC5
:100763004F666D7D077F6F777C395E7971009000EE
:100773000502068A428990000302065D9000020288
:10078300065D90000402065D90000702065D752178
:1007930002E4F522752301752401F525F526F527D5
:1007A300752801FB7A007921FF02029A7D527C03AE
:1007B300ED1D70011C144C70F7EF1F70011E144ED9
:1007C30070EA2290000102065D7500808D007B00B7
:1007D3007A00790022AB21AA22A923900003020602
:0707E3005D90000202065DBB
:00000001FF
