:03000000020741B3
:10000B00020013C2AF80FE3212001285D00B75D0E6
:10001B0008FAC28CE58A24E7F58AE58C34FCF58C6A
:10002B00D28CEC2411F8E6BC0C0274FFC39581B49E
:10003B00140040CF790D782116E608700BC2AFE69D
:10004B0030E1034418F6D2AF08D9EDEA8BD030007B
:10005B0003D20122D50DFAC0E0C0D0C0F0C083C0DE
:10006B0082C000C001C002C003C004C005C006C0EE
:10007B0007E50C232422F87440C2AF46F6D2AFD268
:10008B0000E50CFF232422F80F0808EFB50C06102F
:10009B000103438701BF0D047F007822E630E4E8BB
:1000AB0000E50CC39F5020050C7410250CF8E6FDE1
:1000BB00A68108E6AE0CBE0C0274FFCDF8E86D60AD
:1000CB00E008E6C0E080F6E50CD39F4027E50C2462
:1000DB0011F8E6AE0CBE0C0274FFFD18E6CDF8E588
:1000EB00816D6006D0E0F61880F5E50C2410C8F69B
:1000FB00150C80D3750D05E50C232422F87F04C263
:10010B00AFE610E61E30E00310E20C7F0030E10793
:10011B0030E3047F0854F4C2E7C6D2AF54804207E1
:10012B00C20022F6D2AFD007D006D005D004D00340
:10013B00D002D001D000D082D083D0F0D0D0D0E08C
:10014B00C200227810A681740C6006FF0876FFDFD0
:10015B00FB7F0DE47821F608F608DFFA782276307B
:10016B00900712740193C0E0E493C0E0750D054352
:10017B008901758AE0758CFCD28CD2AFD2A9220C86
:10018B00EFD3940C40037FFF2274222F2FF8E6202D
:10019B00E5F4C2AFE64430F6D2AFAE0CEEC39F50DF
:1001AB00210E74102EF8E6F908E618BE0C0274FF47
:1001BB00FDED69600909E71919F7090980F31616AE
:1001CB0080DAEED39F400405810581EED39F402258
:1001DB0074102EF808E6F9EEB50C02A98118060684
:1001EB00E6FDED6960091919E70909F71980F31E96
:1001FB0080D9EF2410F8E604F8EF2F049007129340
:10020B00F608EF2F93F67F0022EFD3940C40037F79
:10021B00FF22EF232422F8E630E5F4C2AFE6548C3C
:10022B00F6D2AFE50CB5070A74102FF8E6F581028C
:10023B00008A502E74112FF8E6BF0C0274FFFD18C4
:10024B00E6F974102FF8FBE6FCE96C6008A805E7EB
:10025B00F61D1980F4A803A6051FE50CB507E37F6F
:10026B00002274112FF8E6FD1886010F74102FF879
:10027B00A601088604E50CB50702AC81ED6C60089D
:10028B000D09A805E6F780F4E50CB507DE89817F3B
:10029B0000228FF0E4FFFEE50C232421F8C2A930E5
:1002AB00F70D7F08E6600B2DF6603250308007307B
:1002BB00F106EDF660277E020830F010C2AFE610B3
:1002CB00E7250E30E20CD2AF7F048014C2AFE610EC
:1002DB00E71554EC4EF6D2AFD2A902008A7F08087C
:1002EB00EF4483F4C2AF56C6D2AFD2A954804FFFAE
:1002FB0022EFD3940740037F0122120550FED394C3
:10030B000340037F0222EF7041EE700B900001124D
:10031B000569F452935294120550B4010B900001ED
:10032B001205694293F45294120550FEB4020A90DE
:10033B00000112056942934294EEB4030D90000143
:10034B00120569FEF45293EE4294EF64017043126E
:10035B000550FE700B900001120569F452915292F8
:10036B00EEB4010B9000011205694291F452921206
:10037B000550B4020A900001120569429142921293
:10038B000550B4030D900001120569FEF45291EE75
:10039B004292EF64027043120550FE700B90000105
:1003AB00120569F452955296EEB4010B90000112AE
:1003BB0005694295F45296120550B4020A90000159
:1003CB0012056942954296120550B4030D90000137
:1003DB00120569FEF45295EE4296EF6403704312D8
:1003EB000550FE700B900001120569F452B152B228
:1003FB00EEB4010B90000112056942B1F452B21236
:10040B000550B4020A90000112056942B142B212C2
:10041B000550B4030D900001120569FEF452B1EEC4
:10042B0042B2EF64047043120550FE700B90000152
:10043B00120569F452B352B4EEB4010B90000112E1
:10044B00056942B3F452B4120550B4020A9000018C
:10045B0012056942B342B4120550B4030D9000016A
:10046B00120569FEF452B3EE42B4EF640570431209
:10047B000550FE700B900001120569F452C952CA67
:10048B00EEB4010B90000112056942C9F452CA1275
:10049B000550B4020A90000112056942C942CA1202
:1004AB000550B4030D900001120569FEF452C9EE1C
:1004BB0042CAEF64067043120550FE700B900001A8
:1004CB00120569F452CB52CCEEB4010B9000011221
:1004DB00056942CBF452CC120550B4020A900001CC
:1004EB0012056942CB42CC120550B4030D900001AA
:1004FB00120569FEF452CBEE42CCEF640770431247
:10050B000550FF700B900001120569F452E152E2A5
:10051B00EFB4010B90000112056942E1F452E212B3
:10052B000550B4020A90000112056942E142E21241
:10053B000550B4030D900001120569FFF452E1EF71
:10054B0042E27F0022BB010689828A83E0225002AD
:10055B00E722BBFE02E32289828A83E49322BB015A
:10056B000CE58229F582E5833AF583E0225006E912
:10057B002582F8E622BBFE06E92582F8E222E58217
:10058B0029F582E5833AF583E4932212072C7F0148
:10059B0012018B7F0212018B7F0312018B7F0412DE
:1005AB00018B7F0512018B7F0612018B7F071201D6
:1005BB008B7F0812018B7F0912018B7F0A12018B33
:1005CB007F0B12018B7F0C12018BE4FF020214C212
:1005DB00F8E4FBFA7D187F0212029DD2F8E4FBFAD5
:1005EB007D027F0212029D80E6C2F9E4FBFA7D14C4
:1005FB007F0212029DD2F9E4FBFA7D047F02120204
:10060B009D80E6C2FAE4FBFA7D127F0212029DD2B4
:10061B00FAE4FBFA7D067F0212029D80E6C2FBE440
:10062B00FBFA7D107F0212029DD2FBE4FBFA7D08E0
:10063B007F0212029D80E6C2FCE4FBFA7D0E7F0274
:10064B0012029DD2FCE4FBFA7D0A7F0212029D800E
:10065B00E6C2FDE4FBFA7D0C7F0212029DD2FDE4A3
:10066B00FBFA7D0C7F0212029D80E6C2FEE4FBFAD0
:10067B007D0A7F0212029DD2FEE4FBFA7D0E7F0201
:10068B0012029D80E6C2FFE4FBFA7D087F02120294
:10069B009DD2FFE4FBFA7D107F0212029D80E6C221
:1006AB00CCE4FBFA7D067F0212029DD2CCE4FBFA6E
:1006BB007D127F0212029D80E6C2CDE4FBFA7D041F
:1006CB007F0212029DD2CDE4FBFA7D147F0212024F
:1006DB009D80E6C2B6E4FBFA7D027F0212029DD238
:1006EB00B6E4FBFA7D167F0212029D80E6C2B7E4E8
:1006FB00FBFA7D017F0212029DD2B7E4FBFA7D1853
:10070B007F0212029D80E6059605DA05F4060E06B9
:10071B00280642065C0676069006AA06C406DE0686
:10072B00F8750FF0E4F50EFB7A00790E7F051202D7
:10073B00FC7F030202FC787FE4F6D8FD75813A0258
:02074B00014E5D
:00000001FF
