:030000000200718A
:0C007100787FE4F6D8FD758107020003DB
:10005100E4FDFCC3ED9FEC9E5015E4FBFA0BBB00E5
:0F006100010AEB64784A70F50DBD00010C80E4D4
:01007000226D
:03007D00C2C022DC
:10002F00E4F593F594F591F592F595F596F5B1F50F
:10003F00B2F5B3F5B4F5C9F5CAF5CBF5CCF5E1F5E5
:02004F00E222AB
:1000030012002F12007D20C40F7F057E00120051C5
:1000130020C405C2F830C4FD20C5EB7F057E001265
:0C002300005120C5E1D2F820C5DC80FBB4
:00000001FF
