:10000000020003787FE4F6D8FD75812002004A02E1
:1000100000A5E493A3F8E493A34003F68001F2085B
:10002000DFF48029E493A3F85407240CC8C333C435
:10003000540F4420C8834004F456800146F6DFE4A0
:10004000800B010204081020408090014FE47E01E3
:100050009360BCA3FF543F30E509541FFEE493A313
:1000600060010ECF54C025E060A840B8E493A3FA25
:10007000E493A3F8E493A3C8C582C8CAC583CAF0B1
:10008000A3C8C582C8CAC583CADFE9DEE780BEEB64
:100090009FF5F0EA9E42F0E99D42F0EC6480C8646E
:1000A000809845F022E4F5B2F5B1120121D2AF807B
:0100B000FE51
:1000B3000200B6C0E0C0F0C083C082C0D075D008D3
:1000C300E5F630E64E53F6BF3000210511E5117019
:1000D300020510AE10FFEE3395E0FDFCE4FB7A1051
:1000E300F9F8D312008F501BC2008017E5111511C8
:1000F30070021510D3E5119401E5106480948050CB
:1001030002D20043BA8090FF02E510F0A3E511F09C
:1001130053BA7FD0D0D082D083D0F0D0E03243BA6C
:1001230080E4F5F190FFF2F090FFF07410F0A3E497
:10013300F090FF00F0A3F0A3F0A304F0A3E4F075A4
:10014300F50143F54043F58053BA7F22C180021085
:03015300000000A9
:00000001FF
