:10012500E4F593F594F591F592F595F596F5B1F518
:10013500B2F5B3F5B4F5C9F5CAF5CBF5CCF5E1F5EE
:02014500E222B4
:1000FE007C807D001200D1E47B807A3EF9F81200FC
:10010E003FD3EF9400EE94004005EF1F70011E8F59
:07011E00AAEE4480F5AB22BC
:100147001201257FD07E071200FE4387020000B20E
:03015700F880F736
:0300000002015AA0
:0C015A00787FE4F6D8FD758107020147AC
:1000030075F008758200EF2FFFEE33FECD33CDCCB4
:1000130033CCC58233C5829BED9AEC99E582984037
:100023000CF582EE9BFEED9AFDEC99FC0FD5F0D614
:10003300E4CEFBE4CDFAE4CCF9A88222B800C1B93E
:100043000059BA002DEC8BF084CFCECDFCE5F0CB7C
:10005300F97818EF2FFFEE33FEED33FDEC33FCEBB5
:1000630033FB10D703994004EB99FB0FD8E5E4F970
:10007300FA227818EF2FFFEE33FEED33FDEC33FC5D
:10008300C933C910D7059BE99A4007EC9BFCE99A51
:10009300F90FD8E0E4C9FAE4CCFB2275F010EF2F96
:1000A300FFEE33FEED33FDCC33CCC833C810D70796
:1000B3009BEC9AE899400AED9BFDEC9AFCE899F8D1
:0E00C3000FD5F0DAE4CDFBE4CCFAE4C8F92264
:1000D100EC8EF0A4CCC5F0CCCDF8EFA4CEC5F02DBC
:1000E100FDE43CFCE8A42EC8C5F03DFDE43CFCEF7A
:0D00F100A4FFE5F028FEE43DFDE43CFC2208
:00000001FF
