:03000000020003F8
:0C000300787FE4F6D8FD75812002004AE9
:0A024900202020202020202020008B
:1001E1007580FFC2B3D2B4D2B57F017E001201A8DF
:0801F100E58020E7FBC2B52206
:1001F9008F101201E1C2B3C2B4D2B58510807F015C
:080209007E001201A8C2B5221B
:100211008F101201E1D2B3C2B4D2B58510807F0133
:080221007E001201A8C2B52203
:10013B007F381201F97F017E001201A87F3812016E
:10014B00F97F011201F97F061201F97F017E00127E
:07015B0001A87F0C0201F96D
:0C023D007F011201F97F017E000201A880
:09010600750DFF85110E85120F25
:10010F00E50C2000042480800224C0FF1201F9AB0B
:10011F000DAA0EA90F1201C8FF601012021174016F
:0C012F00250FF50FE4350EF50E80E422DC
:10022900E50C2000042480800224C0FF1201F9AFEC
:040239000D0202119F
:10008F0012013BE4F50812023D7509FF85130A853D
:10009F00140BC200750C03120106AB09AA0AA90BB7
:1000AF001201C8FF60DDD20085080CF50D12022980
:1000BF0005087401250BF50BE4350AF50AE508D39D
:1000CF009410402AC200750C03750DFF750E027552
:1000DF000F4912010F7F181201F9C200E50824F32E
:1000EF00F50C1201067FB87E0B1201A880AC7FEED3
:0700FF007E021201A880A39C
:10018600E4F593F594F591F592F595F596F5B1F5B7
:10019600B2F5B3F5B4F5C9F5CAF5CBF5CCF5E1F58D
:0201A600E22253
:1001A800E4FDFCC3ED9FEC9E5015E4FBFA0BBB008D
:0F01B800010AEB64784A70F50DBD00010C80E47C
:0101C7002215
:1001620057656C636F6D6520746F200068747470DE
:100172003A2F2F66736D63752E74616F62616F2EF5
:04018200636F6D003A
:08025300021101620213016EA9
:08025C0012018612008F80FEE2
:10000F0002025CE493A3F8E493A34003F68001F2A9
:10001F0008DFF48029E493A3F85407240CC8C333F2
:10002F00C4540F4420C8834004F456800146F6DFC1
:10003F00E4800B0102040810204080900253E47EFC
:10004F00019360BCA3FF543F30E509541FFEE493B6
:10005F00A360010ECF54C025E060A840B8E493A37D
:10006F00FAE493A3F8E493A3C8C582C8CAC583CAA8
:10007F00F0A3C8C582C8CAC583CADFE9DEE780BE60
:01025B0000A2
:1001C800BB010689828A83E0225002E722BBFE0235
:0901D800E32289828A83E4932268
:00000001FF
