:0300000002010CEE
:0C010C00787FE4F6D8FD75810902011827
:10006000E4F593F594F591F592F595F596F5B1F5DE
:10007000B2F5B3F5B4F5C9F5CAF5CBF5CCF5E1F5B4
:02008000E2227A
:1000A400E4FDFCC3ED9FEC9E5015E4FBFA0BBB0092
:0F00B400010AEB64784A70F50DBD00010C80E481
:0100C300221A
:1000C4007580FFC2B3D2B4D2B57F017E001200A402
:0800D400E58020E7FBC2B52224
:1000DC008F091200C4C2B3C2B4D2B58509807F01A6
:0800EC007E001200A4C2B5223F
:1000F4008F091200C4D2B3C2B4D2B58509807F017E
:080104007E001200A4C2B52226
:10003B007F381200DC7F381200DC7F381200DC7F47
:10004B00011200DC7F061200DC7F017E001200A48F
:05005B007F0C0200DC37
:1000030012003B7F057E001200A47F801200DCE516
:100013000890008293FF60071200F4050880F0E463
:10002300F5087FC01200DCE50890009393FF60079A
:070033001200F4050880F043
:01003A0022A3
:100082005E5F5E2057656C636F6D65205E5F5E200C
:1000920000204920204C4F564520204653535431CE
:0200A200350027
:0801180012006012000380FEDA
:00000001FF
