:0700000002000E3232323221
:0F000B000202ED787FE4F6D8FD75812002001E19
:10001B000200037F0A7E00120373D2AF1203541245
:10002B00005530000CC200AF180518120086E50A07
:10003B00F03001EEE519651860E8C201AF1905193A
:10004B00120086E0F50CD20380D8C203C202D201A3
:10005B00C200E4F50FF50E22020004900005020227
:10006B00B542899000030202889000020202889038
:10007B00000402028890000702028874002FF582A8
:06008B00E43400F58322BD
:03009B000200055B
:1000A300020006AD07EDD3940440037F0122ED70F7
:1000B3005F12026FFED3940340037F0222C28CC2FD
:1000C300A9C2B95389F0538E7F538FFE120074B4C3
:1000D3000102D2A9900001120288B40102D2B9EE42
:1000E30012006CFF7003438E80EFB4020343890454
:1000F30012007AB40103438F01120066E5F0F58C18
:10010300120066F58A120080B40102D28C7F0022AD
:10011300ED6401706212026FFEC3940340037F0219
:1001230022C28EC2ABC2BB53890F538EBF538FFD06
:10013300120074B40102D2AB900001120288B40120
:1001430002D2BBEEC454F012006CFF7003438E4026
:10015300EFB4020343894012007AB40103438F02D0
:10016300120066E5F0F58D120066F58B120080B47F
:100173000102D28E7F0022ED6402704E12006EFEE9
:10018300D3940240037F0222538EE353AFFB538F7A
:10019300FB120074B4010343AF04EE7003438E04F7
:1001A30012006EB40203438E0812007AB4010343B3
:1001B3008F04120066E5F0F5D6120066F5D712003B
:1001C30080B40103438E107F0022ED6403704B1251
:1001D300006EFED3940240037F022253D1F053AF4B
:1001E300DF120074B4010343AF20EE700343D10266
:1001F30012006EB4020343D10612007AB401034322
:10020300D101120066E5F0F5D4120066F5D51200AF
:1002130080B4010343D1087F0022ED6404704A12C5
:10022300006EFED3940240037F022253D10F53AFDB
:10023300BF120074B4010343AF40EE700343D120F7
:1002430012006EB4020343D16012007AB401034377
:10025300D110120066FDACF0ECF5D28DD312008004
:10026300B4010343D1807F00227F0222BB010689B0
:10027300828A83E0225002E722BBFE02E3228982C4
:100283008A83E49322BB010CE58229F582E5833A54
:10029300F583E0225006E92582F8E622BBFE06E953
:1002A3002582F8E222E58229F582E5833AF583E4A3
:1002B3009322BB0110E58229F582E5833AF583E0B9
:1002C300F5F0A3E0225009E92582F886F008E6223A
:1002D300BBFE0AE92582F8E2F5F008E222E5832A6B
:1002E300F583E993F5F0A3E99322C0E0C0D030028F
:1002F30023E50E701B750E04D50B0985080AC2028F
:10030300D200800CE508C313F50830B0034308801E
:10031300150E800B20B008D202750E04750B09155B
:100323000FE50F7027750F04300221E50D700AC227
:10033300B1850C09750D098013E509C313F509D5BA
:100343000D08D2B1C202D201800292B1D0D0D0E066
:1003530032E4F510751101751201F513F5147515D5
:10036300FE7516E0751701FB7A007910FF0200A6EF
:100373007D527C03ED1D70011C144C70F7EF1F7050
:07038300011E144E70EA2276
:00000001FF
